:1003090001241A01210C022207E90125000D26000A
:0E0319001F1C1F1E1F1E1F1F1E1F1E1FC100A8
:10036C0012033A1200031201B21202171202D180C8
:01037C00EF91
:100003002000030200B8E5A0540FF5331201B21229
:1000130002171202D1C2A4D2A5D2A6D2A720A71832
:100023007F027E0012035720A7051202D180F87FBA
:10003300027E00120357052420A6187F027E0012B9
:10004300035720A6051202D180F87F027E00120317
:10005300570521E5A0540FF533D2A4C2A5D2A6D2E9
:10006300A720A71E7F027E0012035720A7051202B6
:10007300D180F87F027E001203570523E523700227
:10008300052220A6187F027E0012035720A6051220
:1000930002D180F87F027E001203570525D3E525A0
:1000A3009401748094805003020003E4F525C20098
:0600B300D2A302000322AB
:1001B200AE22AF237C017D9012027CED4C6014E5EF
:1001C2002354037013AE22AF23FC7D6412027CED34
:1001D2004C600575281D800375281C74262521F89E
:1001E200E6FFE524D39F40057524010521D3E521CF
:1001F200940C74809480400B7521010523E52370D3
:10020200020522C3E523944DE52294084006752297
:0502120000752301222C
:10021700AE22AF237C037DE812027C8F34AE22AF7F
:10022700237C007D6412027C7C007D0A12027C8D97
:1002370035AE22AF237C007D0A12027C7C007D0A4A
:1002470012027C8D36AE22AF237C007D0A12027C1F
:100257008D37E52175F00A84F538E52175F00A84B4
:1002670085F039E52475F00A84F53AE52475F00A36
:050277008485F03B222C
:1002D100AD3B7F08120145AD3A7F07120145AD39AB
:1002E1007F06120145AD387F05120145AD377F0408
:1002F100120145AD367F03120145AD357F02120172
:0803010045AD347F0102014506
:10033A00C2A5D2A620A6157F0F7E0012035720A6BB
:0D034A000B7F0A7E00120357D200C2A322CF
:10035700EF1FAC0670011E4C600A7D047CE1DCFED9
:04036700DDFC80EC4D
:01036B00226F
:1003270010083F065B4F666D7D077F6F777C395EF0
:020337007971DA
:10014500EF14B40800505490015A75F003A4C58308
:1001550025F0C5837302017202017602017E020158
:100165008202018A02018E02019602019AC2A080D2
:1001750002D2A0C2A1C2A28022C2A08002D2A0D275
:10018500A1C2A28016C2A08002D2A0C2A1D2A28022
:100195000AC2A08002D2A0D2A1D2A274082DF8E68C
:0D01A500F5807F017E00120357E4F58022F3
:030000000200B942
:0C00B900787FE4F6D8FD75813B02010061
:10027C00BC000BBE0029EF8DF084FFADF022E4CC66
:10028C00F875F008EF2FFFEE33FEEC33FCEE9DEC2F
:10029C00984005FCEE9DFE0FD5F0E9E4CEFD22ED75
:1002AC00F8F5F0EE8420D21CFEADF075F008EF2FBF
:1002BC00FFED33FD4007985006D5F0F222C398FDB0
:0502CC000FD5F0EA224D
:1000C50002036CE493A3F8E493A34003F68001F2E2
:1000D50008DFF48029E493A3F85407240CC8C3333C
:1000E500C4540F4420C8834004F456800146F6DF0B
:1000F500E4800B0102040810204080900309E47E8F
:10010500019360BCA3FF543F30E509541FFEE493FF
:10011500A360010ECF54C025E060A840B8E493A3C6
:10012500FAE493A3F8E493A3C8C582C8CAC583CAF1
:10013500F0A3C8C582C8CAC583CADFE9DEE780BEA9
:0103390000C3
:00000001FF
